:100000000000042001410000394100003B41000094
:100010003D4100003F410000414100000000000060
:100020000000000000000000000000007D2900002A
:100030004541000000000000152A0000252A0000AC
:100040005D6900004B4100004B4100004B41000046
:100050004B4100004B4100004B4100004B41000070
:100060004B4100004B4100004B4100004B41000060
:100070004B4100004B4100004B4100004B41000050
:100080004B4100004B4100004B4100004B41000040
:100090004B4100004B4100004B4100004B41000030
:1000A0004B4100004B4100004B4100004B41000020
:1000B0004B4100004B410000000000000000000028
:1000C0004B4100004B4100004B4100004B41000000
:1000D0004B4100004B4100004B4100004B410000F0
:1000E0004B4100004B4100004B410000000000006C
:1000F000000000004B410000000000004B410000E8
:1001000010B5054C237833B9044B13B10448AFF351
:1001100000800123237010BDA00300200000000018
:10012000909900000C4B43B10C480D4910B5AFF34A
:1001300000800C48036823B910BD0A48036833B92E
:100140007047094B002BF7D0BDE810401847064B0D
:10015000002BF5D0184700BF000000009099000068
:10016000A4030020A003002000000000154B002B7A
:1001700008BF134B9D46A3F5803A00218B460F46DE
:100180001348144A121A08F027FA0F4B002B00D01C
:1001900098470E4B002B00D0984700200021040008
:1001A0000D000D48002802D00C4802F0C3F808F0FA
:1001B000C5F92000290002F0D3FA02F0B8F800BF18
:1001C000000008000000042000000000BD26000020
:1001D000A003002000630020352300000000000081
:1001E00000207047002070472DE9D0431F46036868
:1001F0009B6A16460446DDE90689984702460B4687
:100200003046394608F0CEFA134302D00020BDE84C
:10021000D083236820469B6A984702460B46404697
:10022000494608F0BFFA1343F0D1236816EB0806DD
:100230009B6B204647EB09079847B94208BFB0427D
:100240002CBF01200020BDE8D0832DE9D0431F46FC
:1002500003685B6A16460446DDE90689984702464C
:100260000B463046394608F09DFA134302D0002071
:10027000BDE8D083236820465B6A984702460B4658
:100280004046494608F08EFA1343F0D1236816EB36
:1002900008069B6B204647EB09079847B94208BF01
:1002A000B0422CBF01200020BDE8D0831F2886BFAC
:1002B00000F01F00044A4FF0A042012303FA00F0AF
:1002C000C2F80C05704700BF000300500368DB6AEA
:1002D0001847012000217047D0F80C010021704719
:1002E00090F8343123B100F58C70D0E900017047EB
:1002F000002000217047FF20704700000048704731
:10030000D18A0000016870B5096B14461D46064687
:10031000884702460B462046294608F043FA134315
:1003200001D0002070BDDDE90423A4185D413368CD
:1003300014F1FF32196B304645F1FF33884702460E
:100340000B462046294608F02DFA1343E9D13368BD
:1003500030469B6B9847A94208BFA0422CBF0120A2
:10036000002070BD1F2886BF00F01F00044A4FF018
:10037000A042012303FA00F0C2F80805704700BF4D
:100380000003005073B5064604461B4846F8040BAC
:100390004FF0FF300090304600F0D4FE204600259C
:1003A00000F84C5F9DF9181001F0EAFB04F58C731E
:1003B00000200021C3E900010323C4F820310823F1
:1003C000C4F82431C4F82C310123C4F880300799D3
:1003D000C4F83051304684F83451C4F82851C4F878
:1003E0000C5184F8005100F001FF94F94C00FFF724
:1003F000B9FF204602B070BDE08A00002DE9F0414F
:10040000FF261E604C781C601C2A37DD069A079C6C
:1004100002F1100C0125B046C2F8008091F81CE0F2
:100420000127BEF1000F03D07F000EF1FF3EF8E779
:10043000012F276019D04F7F17602768D0F80CE193
:10044000774502D3BEF1000F01D1C0F80C712768C7
:10045000B7F5805F04D117681E68BE4218BF1F60E1
:1004600090F800712F4380F8007104326D006245EE
:10047000EDB201F1020104F10404CDD10020BDE888
:10048000F081F0B51D4600F58C731446D3E90023C6
:10049000AB4208BFA24216D3D0F8801099B101290F
:1004A0000FD000EBC1008B1EA830002B0BDB70E9D6
:1004B0000267AF4208BFA64201D2581CF0BD013B03
:1004C000F3E70020F0BD4FF0FF30F0BD10B504465B
:1004D000FFF7D7FF03465A1CD4F80C0109D0234478
:1004E000012293F800110023114204D01C3354F868
:1004F0002300002110BD01335200042B52B2F3D16E
:10050000F7E7F0B5059D00F17C06002703200824DD
:10051000EB1A0D78254208D03768974201DA9F42DE
:100520000BDB25EA04050D7007460138451C4FEA30
:100530005404A6F10406ECD13846F0BD70B505466A
:1005400004689CB90A4E306818B14FF0FF3103F0CF
:1005500029F92C6834B915F1080402D0204601F0BD
:10056000ADFF2C60306808B103F034F9204670BD4F
:10057000F01200202DE9F84FD0F82C31054605F196
:10058000040990F94C0090464FEAD30ADDE90C6764
:10059000FFF78CFE484600F08CFED5F8204104F1B0
:1005A0000054013CE400002C08DA0024544510D02B
:1005B0000021484600F07DFE0134F7E72246DDE9E0
:1005C0000A0108F0D7F8C1B2484600F072FE083CB4
:1005D000E9E708F1FF384FF0000A4FF0000BBB4588
:1005E00008BFB2450AD00021484600F062FE1AF169
:1005F000010A08F8010F4BF1000BF0E795F94C00E8
:10060000FFF7B0FE0020BDE8F88F0000F0B51F46F0
:1006100090F8343185B004460D46164603B31248AF
:10062000FFF78CFF01F052FFD4F82431C4F82C31CD
:10063000DDE90A23216DCDE90223CDE900672A46D1
:100640002046FFF797FFD4F82831C4F82C3105462F
:100650000548FFF773FF01F055FF284605B0F0BDD0
:100660006FF47A65F9E700BFC00300202DE9F0437D
:1006700095B0002304AD02928DE80A0003932A4648
:100680005A210446FFF776FF00284DD19DF810301F
:1006900003F00303032B03D09DF81130002B43D04C
:1006A0009DF8120001300A28C4F880003CDC0023C9
:1006B00004F1840904F5807804F1B00C4FF00F0EBA
:1006C00019460131884255F8212015F8216022F0A1
:1006D000FF0202F5807249F8042B02F1FF3206F0A6
:1006E0000F06134408F8016B4FEAE3770EEA060E93
:1006F0001E46ECE8026703F10103E2DC012200235D
:1007000012EA0E0008D01C33002054F82330C4F83D
:100710000C3115B0BDE8F08301335200042BD2B286
:10072000EED1C4F80C01F4E74FF0FF30F1E730B53B
:1007300095B00023154602928DE80A00039304AA9F
:100740005A210446FFF716FF002838D19DF81230D1
:1007500013F0040233D19DF91730002B2FDB059BDA
:10076000C4F81C210133DB08C4F8183103232365C6
:1007700002236365282D4FF02003A36507DD9DF854
:1007800038200123121122B15B00013AFBE74FF43C
:100790008073C4F8103104F17003019304F1600315
:1007A00000932A4604F15C0304A92046FFF726FEC5
:1007B000E36DA3650020C4F8240115B030BD4FF0EF
:1007C000FF30FAE72DE9F04F8FB0934607930823E7
:1007D000C0F82431C0F82C31002299464FF00008AF
:1007E000029300238A46CDE90023CDF80C800AAAA3
:1007F0005A210646FFF7BEFE28B14FF0FF373846B4
:100800000FB0BDE8F08F042233490AA807F0CAFEF2
:1008100007460028F1D19DF82D20012AEDD19DF841
:100820002E000021023041F10001CB004546059326
:10083000C3004C46C8460493A946CDF80880CDF8BD
:100840000C90CDE9004508AA5A213046FFF792FEE8
:100850000028D2D19DF82220012ACED19DF8202057
:100860000ABB9DF82720FF2A13D19DF825209DF86B
:100870002610120242EA01429DF824100A43CAF8E7
:1008800000209DF823209200402AA8BF4022CBF8E8
:100890000020DDE90423083445F10005AB4208BF20
:1008A000A242CAD1ABE7512AF3D19DF82720FF2AF3
:1008B000EFD19DF825209DF82610079B120242EAF1
:1008C00001429DF824100A431A609DF82320189BCA
:1008D00092001A60DDE700BFCC8A00002DE9F84FD6
:1008E000D0F82C31054605F1040890F94C009146EA
:1008F0004FEAD30ADDE90C67FFF7D8FC404600F069
:10090000D8FCD5F8204104F10054013CE400002C4F
:1009100008DA0024544510D00021404600F0C9FCFC
:100920000134F7E72246DDE90A0107F023FFC1B2EF
:10093000404600F0BEFC083CE9E709F1FF394FF002
:10094000000A4FF0000BBB4508BFB24509D019F8AB
:10095000011F404600F0ADFC1AF1010A4BF1000BFB
:10096000F1E795F94C00FFF7FDFC0020BDE8F88F9A
:100970002DE9F74305461F46D0F82C3190F94C007D
:1009800005F1040816464FEAD309FFF78FFC4046ED
:1009900000F08FFC7B1C08BFB6F1FF3F1BD0D5F8E1
:1009A000204104F10054013CE400002C08DA00244A
:1009B0004C4510D00021404600F07BFC0134F7E7A5
:1009C00022463046394607F0D5FEC1B2404600F017
:1009D00070FC083CE9E70D9B00930AA90EC940464C
:1009E00000F077FC95F94C00FFF7BCFC002003B049
:1009F000BDE8F0837FB506461448FFF79FFD01F080
:100A000065FD96F834514DB9C6F830510F48FFF7DF
:100A100095FD01F077FD284604B070BDD6F8304151
:100A2000013CC6F830417CB90394029401940094CF
:100A30004FF0FF324FF0FF3304213046FFF798FFAD
:100A400086F834410546E1E70025DFE7C0030020D2
:100A5000DFB5074E0024002703940294019400940C
:100A600032403B40FFF784FF204604B0D0BD00BFBA
:100A700000F0FFFF2DE9F04186B0064642F2107407
:100A80004FF0010805AF0025012001F0E6FC4FF012
:100A9000FF33CDF80C800297019500954FF0FF329F
:100AA00005213046FFF764FF9DF81430DB0705D5BC
:100AB000013CE9D1204606B0BDE8F0810120FAE70B
:100AC00030B587B006AA002322F8043D0121039126
:100AD0000292019300934FF0FF324FF0FF33052154
:100AE0000546FFF745FF20B14FF0FF34204607B021
:100AF00030BD03900290019000904FF0FF324FF014
:100B0000FF3366212846FFF733FF0028ECD103901E
:100B10000290019000904FF0FF324FF0FF33992187
:100B20002846FFF725FF003018BF01204442284621
:100B3000FFF7A0FFDAE770B586B0002303930293B6
:100B4000019300934FF0FF324FF0FF33062105462B
:100B5000FFF70EFF044618B14FF0FF3006B070BD2E
:100B60002846FFF787FF0028F6D005AE022221466F
:100B7000304607F031FD012303930296019400945F
:100B80004FF0FF324FF0FF3305212846FFF7F0FE0C
:100B90000028E1D19DF8140080F0020040F34000ED
:100BA000DCE700002DE9F04F9B4690F8343185B02A
:100BB00004460D469246002B45D0DFF8AC80DDE9B7
:100BC0000E23134345D0D4F8109100274A463B46E4
:100BD0005046594607F0E6FDDDE90E0180185941FF
:100BE000B94208BF4845204834BFDDF83890A9EB2A
:100BF0000209FFF7A3FC01F069FC2046FFF79BFF09
:100C000048BB00274E46CDE900ABCDE902672A4636
:100C1000616D2046FFF762FEDDE90E231AEB090A3B
:100C20004BEB070BB2EB090263EB070320464D4485
:100C3000CDE90E23FFF71EFFA0B14046FFF77EFC73
:100C400001F060FCBBE76FF47A64204605B0BDE8B4
:100C5000F08F0024F9E7054C0348FFF76FFC01F023
:100C600051FCF2E7024CF7E7C00300205CF0FFFF05
:100C70005DF0FFFF2DE9F04F90F8341187B0824608
:100C800016461F46DDE91045002900F08A80FFF76F
:100C9000F8FB0AEB000314EB060893F800318DF81B
:100CA00017300AF58C73D3E9002345EB07094B4550
:100CB00008BF4245834603D2404807B0BDE8F08FE5
:100CC000DAF800303246D96C50463B468847024637
:100CD0000B463046394607F065FD1343ECD1DAF890
:100CE000003018F1FF32D96C504649F1FF33884784
:100CF00002460B464046494607F054FD1343DBD1FC
:100D0000DFF8BC80002C4FDD0AEBCB092246D9F876
:100D1000B03000930DF1170133465046FFF7F1FB59
:100D20000AEB80003946056F036E03932A460023C1
:100D3000304607F037FD13199D42404694BFAD1A67
:100D40002546FFF7FBFB01F0C1FB5046FFF7F3FE22
:100D500060BB2246E317CDE90023039932463B46A8
:100D60005046FFF775FE641B761947F10007002C0B
:100D70000DDDD9E92C23BB4208BFB2423FBF0BF1C6
:100D8000010B0AEB0B0393F800318DF81730504636
:100D9000FFF770FE50B14046FFF7D0FB01F0B2FB09
:100DA000B0E76FF47A6088E7002086E70448FFF731
:100DB000C5FB01F0A7FB03487FE700BF5BF0FFFF27
:100DC000C00300205DF0FFFF70B58AB00023044629
:100DD0004E480693079308930993FFF7AFFB01F082
:100DE00075FB94F834310BB9C4F83031D4F8303194
:100DF0000133012BC4F8303108D000254348FFF7F8
:100E00009DFB01F07FFB28460AB070BD2046FFF72E
:100E100057FE013002D16FF47A65EFE703230393A5
:100E200005AB02930023019300934FF0FF324FF084
:100E3000FF339F212046FFF79BFD05460028EAD19E
:100E40009DF81430BF2B0ED12046FFF774FE03959A
:100E50000295019500954FF0FF324FF0FF33982136
:100E60002046FFF785FD2046FFF704FE00284AD004
:100E700009AB009307AA08AB06A92046FFF7A2FC1E
:100E800008B1234DBAE7079A06992046FFF74FFCB1
:100E900005460028F5D104F58C76D6E9002308999B
:100EA000C4F8842012F1FF3243F1FF33C4E92C234C
:100EB00001BBD4F82831C4F82C31012384F8343133
:100EC000D6E9002300214FF08070994208BF90427C
:100ED00093D2002303930293019300934FF0FF32C8
:100EE0004FF0FF33B7212046FFF742FD0423C4F83B
:100EF000203183E7099A002ADBD02046FFF7B6FBB2
:100F00000028D6D0BDE7034D78E700BFC00300201E
:100F10005EF0FFFF5DF0FFFF38B50446054B44F877
:100F2000043B0546FFF766FD204600F0EDF9284634
:100F300038BD00BFE08A000010B50446FFF7ECFFA3
:100F4000204601F031FA204610BD7047704703F08B
:100F500039BB03F049BB03F02DBB03F047BB0000D6
:100F600070B50D4E05463046FFF7E8FA01F0AEFACF
:100F7000284603F09FFA0446284603F033FB01F0AD
:100F800003FA68603046FFF7D9FA01F0BBFA201C7B
:100F900018BF0120404270BDF003002038B505465F
:100FA0000B48FFF7CBFA01F091FA284603F0A0FABC
:100FB000003018BF01204442686808B101F0F6F91A
:100FC0000348FFF7BBFA01F09DFA204638BD00BF89
:100FD000F00300202DE9F0410C4C054620460F4659
:100FE00016469846FFF7AAFA01F070FA43463A46C9
:100FF0003146284600F080FD05462046FFF79EFA60
:1010000001F080FA2846BDE8F08100BFF00300201F
:10101000C36810B504460BB19B689847204610BDC5
:1010200010B4446800F108010EC95CB103F001007E
:1010300002B938B15B1008B1E0588258E0185DF889
:10104000044B10475DF8044B7047000070B50B4D22
:101050000646286818B14FF0FF3102F0A3FB346850
:1010600034B916F1080402D0204601F027FA3460A2
:10107000286808B102F0AEFB204670BDF0120020D7
:1010800008B54368186D18B903F15000FFF7DEFF8B
:10109000BDE8084001F036BA08B54368186D18B9C4
:1010A00003F15000FFF7D2FFBDE8084001F00EBA8F
:1010B00038B5054601F074F8074B1B68002B08DDB6
:1010C000064C2078A84218BF002401F073F820468F
:1010D00038BD0024F9E700BFA80400202004002048
:1010E000044A1368591C1160034A882000FB03203E
:1010F000704700BFA80400202004002038B5082352
:1011000083630F4B03640025FF2380F8305080F881
:10111000315080F84550C56380F84430044601F0F2
:101120003FF82846FFF7C4FF0546606018B9FFF78F
:10113000D7FF60600570BDE8384001F03BB800BFE4
:1011400040420F002DE9F04104461E46134B036058
:101150000025134BE0608846174605611022456163
:1011600085618360C5612946203007F035FA204645
:101170009DF9183084F8353084F8328084F8337063
:1011800084F834604FF0FF3100F8365F00F0F8FC6F
:101190002046FFF7B3FF2046BDE8F081388B000002
:1011A0002110000037B504464068D0F880309C42DA
:1011B0001AD094F9355094F9343094F9332094F9D5
:1011C00032100095043004F0DDF86068E26BA16B2A
:1011D0000023043004F02AF96068216C043004F024
:1011E00037F96368C3F8804003B030BD036870B559
:1011F00004461B690D46984760682564D0F8803026
:101200009C4209D12946043004F022F92368204683
:101210005B69BDE8704018472046FFF7C3FFF5E75C
:1012200090F936305A1C19D061B11F2B86BF03F0DC
:101230001F030B494FF0A041012202FA03F3C1F84A
:10124000083570471F2B86BF03F01F0304494FF07A
:10125000A041012202FA03F3C1F80C35704700BF28
:101260000003005038B5036804461B69984794F999
:1012700045506B1C84F8453045B92046FFF792FF76
:1012800029462046BDE83840FFF7CABF38BD10B533
:1012900090F84530013B5BB2044680F8453013B905
:1012A0000121FFF7BDFF236820465B69BDE81040C0
:1012B000184738B504460D46FFF7D4FF6068294645
:1012C000043004F0FFF805462046FFF7E0FF28460B
:1012D00038BDF7B504461F460D461646FFF7C2FF58
:1012E00094F8443060680193089B009329463B467C
:1012F0003246043004F010F905462046FFF7C7FFD8
:10130000284603B0F0BD000010B50D4B0360044645
:10131000FFF7C2FE6368D3F88020944204BF002226
:10132000C3F880202046FFF7ABFE04F12000FFF752
:101330006FFEE06908B100F073FE204610BD00BFEB
:10134000388B000010B50446FFF7DEFF204601F0A1
:101350002BF8204610BD03689B68184710B504465B
:10136000074B236000220023C4E902230023084620
:10137000A16123616361034900F092FD204610BD25
:10138000588F00005713000007B5009000F10801C6
:10139000806900F0C4FD03B05DF804FB00F10801B2
:1013A000806900F0ECBD000010B5034B03600446FB
:1013B000FFF7F4FF204610BD588F0000024B0A468D
:1013C0001B680021184700BF040200206C22002186
:1013D00007F002B910B16C21FFF7F0BF70470000B1
:1013E000002303604360B9B9184B8360184BC36096
:1013F000184B0361184B4361184B8361184BC36151
:10140000184B036203F17453A3F52303A3F692432D
:101410004362816600207047134B8360134BC360A7
:1014200003F1794303F5740303F501630361104B82
:101430004361104B836103F1D14303F5C01303F5FE
:101440001E63C3610C4B03620C4BE1E767E6096A5C
:1014500085AE67BB72F36E3C3AF54FA57F520E51D5
:101460008C68059BABD9831FD89E05C107D57C36F8
:1014700039590EF7310BC0FFA78FF964A44FFABE9C
:10148000FFF7AEBF2DE9F04FCBB000F1080300939A
:101490001A46002302A852F8044B40F823400133B7
:1014A000082BF7D102AC94E85004059BDDF824B07A
:1014B000069D089FDDF81CC00193ADF118024FF0A6
:1014C000000EBEF10F0F62D84B7891F800901B040C
:1014D00043EA0968CB7848EA030391F8028043EABB
:1014E00008231364354B53F82E301846136C4FEA1B
:1014F000F528184488EAB5188CEA070388EA756865
:101500002B4080447B409844019BCDF804A0D844F4
:101510004344184646EA04094FEA743306EA040BCA
:1015200083EAB40309EA0A0949EA0B0983EAB453D6
:101530000EF1010E4B44BEF1400F434401F1040192
:1015400002F10402BB461BD1029309970690CDF825
:1015500020C0079503940496CDF814A00023009AA8
:1015600002A9126851F823100A440099013341F886
:10157000042B082B0091F2D100204BB0BDE8F08F76
:10158000B24667462646AC461C46054699E7936B2D
:10159000D2F804904FEAF34888EA734888EA93281F
:1015A000536A1846136818444FEAB94383EAF9139B
:1015B000804483EAD90908EB090392E7648F0000AD
:1015C0002DE9F04105460F46144612B90020BDE84A
:1015D000F081036803F03F0013449A422B6082BFFE
:1015E0006B6801336B6008B3C0F14006B24216D39A
:1015F00005F128083246404406F0E3FF41462846FC
:10160000FFF740FF0028E2D13744A61B3446311BC8
:101610003F2C39440CD8002CD8D00F460020283558
:1016200022463946284406F0CCFFCFE71646EDE7C0
:101630002846FFF727FF0028C9D1403CE7E7FFF71E
:10164000BFBF036870B503F03F030446581C234432
:10165000802238280D4683F8282004F1280674D803
:10166000C0F138020021304406F0B6FF23686168FB
:101670005A0F42EAC102110EDB0084F86010110C0F
:1016800084F8611084F86320110A1A0E84F864202B
:101690001A0C84F865201A0A84F8621084F866200F
:1016A00084F8673031462046FFF7ECFE00284BD126
:1016B000E37A2B7063896B70A3681B0AAB70A36815
:1016C000EB70E37B2B71E3896B71E3681B0AAB71F1
:1016D000E368EB71E37C2B72638A6B7223691B0AEC
:1016E000AB722369EB72E37D2B73E38A6B736369DF
:1016F0001B0AAB736369EB73E37E2B74638B6B74B0
:10170000A3691B0AAB74A369EB74E37F2B75E38BAE
:101710006B75E3691B0AAB75E369EB7594F82330CD
:101720002B76638C6B76236A1B0AAB76236AEB7687
:10173000A36E4BB994F827302B77E38C6B77636AF1
:101740001B0AAB77636AEB7770BDC0F140020021E2
:10175000304406F041FF31462046FFF793FE002853
:10176000F2D10146382230467EE7FFF76ABF10B556
:10177000072300220121C40744BF01FA03F42243D6
:1017800013F1FF334FEA5000F5D2104610BD0000B0
:101790002DE9F04F8FB0074606A816460C469A462C
:1017A000FFF7D3FB102200210AA806F015FF002E38
:1017B0006FD006A8FFF7D4FB0546002871D1394643
:1017C00006A8FFF7C4FB07F18F039C42C0F0B0806E
:1017D00006A8FFF7BEFB804606A8FFF7BCFB404407
:1017E000844200F2A5800134E41B4FEA5408A84566
:1017F00007EB050104D906A8FFF7A9FB0544F6E7A6
:101800004C4B0A97641B002B0B950C910D9414BF45
:1018100001270227002506A80AACFFF79EFB54F813
:1018200035200DF12008814608234032414606A8A4
:10183000FFF7D0FB30B918F800304B4533D10130F9
:101840000828F8D10135022DE5D13B4C6CE018F1A8
:10185000010849F10009DDE90001894508BF80451B
:101860005FD212F8010F0392FFF781FF039A8BEA10
:10187000006B0921013911F0FF01E8D0BBF1000F25
:101880004FEA4B03B6BFDFF8BCB09B4683EA0B0BB5
:10189000F0E72A4C06A8FFF759FB20460FB0BDE839
:1018A000F08F274CF6E7189BBDF8228013B1189BE8
:1018B000C3F80080C245C5D354F8352043463146AD
:1018C00006A8FFF787FB04460028BBD11FFA88F261
:1018D0000023022FCDE900234FF000084FF000094C
:1018E0004FF0FF3B06F1FF32B5D012490491DDE91C
:1018F0000001894508BF804513D212F8010F0392F9
:101900000592FFF734FF80EA1B60C0B20499039A86
:1019100051F8200018F1010880EA0B2B49F1000969
:10192000E4E7099A5A458DD106A8FFF737FBB1E7DE
:10193000024CF9E7508B00000701FF800101FF8096
:101940000F01FF80B71DC1042DE9F3470546684626
:101950000E46FFF7FAFA4A49084606F001FF68B951
:101960004FF47E232B604FF400532A681A443260F0
:101970002A68CAB983B94FF0010819E041494048C3
:1019800006F0EEFE10B900232B60EEE73E493C481E
:1019900006F0E6FE0028F6D03C4C6846FFF7D6FA83
:1019A000204602B0BDE8F087002BF5D04FF00008CC
:1019B0006846FFF7D5FA044600285ED1344A354818
:1019C000354B1044A0EB030A51466846FFF7BFFAB7
:1019D00081466846FFF7BDFA07466846FFF7BBFA3F
:1019E0000744B8F1000F2ED1D5F800806846414673
:1019F000FFF7ADFA2346024681462146404606F0EF
:101A0000D1FED6F800A000FB09F90AF1FF316846C3
:101A1000FFF79DFA002180461AF1FF304246234627
:101A200041F1FF3106F0BEFE2B684B4500FB0888F4
:101A300004D13368434501D19F421AD26846FFF76B
:101A4000ADFA164CA9E7791E6846FFF780FA002127
:101A5000A7EB40081AF1FF304A4641F1FF31234617
:101A600006F0A0FE00FB0999C845E7D3C5F8008041
:101A700037606846FFF792FA8FE7094C8DE700BFA1
:101A8000649000006F9000007C9000000901FF80CE
:101A9000A0990000A0030020000200200601FF80A2
:101AA0000F01FF8013B50F4C2378BFF35B8FD9076D
:101AB00015D4204600F048FC88B10B4B0B4811228E
:101AC0008DE80C00142115221323FEF75BFC204641
:101AD00000F051FC064A0749044800F026FC034880
:101AE00002B010BDAC040020005A6202B004002015
:101AF00000020020190F000008B510461A4606F033
:101B000060FD002008BD000038B504460D4690F980
:101B10000030AAB11F2B86BF03F01F030F494FF0FF
:101B2000A041012202FA03F3C1F808352046012141
:101B300002F080FE29462046BDE8384002F066BE2D
:101B40001F2B86BF03F01F0304494FF0A041012261
:101B500002FA03F3C1F80C35E8E700BF00030050B8
:101B600070B50E460446154602F038FE013606D022
:101B70002A4620460021BDE87040FFF7C5BF70BD72
:101B80000022FFF7EDBF000000487047849000007E
:101B9000024B1B680BB1024818477047080200202F
:101BA000849000002DE9F74FD0F804A09AF83A305D
:101BB0000446002B46D103685B68984763681B6A3C
:101BC00098423FD0DAF82030DAF80840CAF820000E
:101BD000A0EB0308DAF80C30314808EA0308844225
:101BE00046464FF0000727D0DAE90A239AF83BB0BF
:101BF000A8FB0089CDE900230025BBF1000F2BD005
:101C00005A464046494606F0B5FDDDE9002312EB91
:101C1000080243EB090390465A46994606460F468A
:101C200006F0B4FDB8EB000069EB0101A94208BF62
:101C3000A0420AD2CAE90A01DAE90C23B6185F41C8
:101C4000CAE90C6703B0BDE8F08F013647F1000721
:101C5000001B61EB0501EDE722462B464046494655
:101C600006F0A0FD224606460F46404649462B4652
:101C700006F098FDDDE9008918EB020849EB03093D
:101C8000A94508BFA04502D2CAE90A89D4E70136AE
:101C900047F10007B8EB040869EB0509F4E700BF5A
:101CA00040420F00824206D98A420BD9884294BF33
:101CB000002001207047884206D98A428CBF00204C
:101CC0000120704701207047002070472DE9F04740
:101CD000466896F83A300746002B66D196F83930B8
:101CE000002B62D1FFF75EFF7D68D7F800A06B681C
:101CF000002B50D0D5E90C89D3E90001894508BFF4
:101D0000804504D3DAF81430BDE8F0471847D5E928
:101D10000623B0EB080861EB09094B4508BF4245B3
:101D20002C6906D3AB68224A934216D1444528BF9A
:101D300044462A6ADAF810301444EA68144020460F
:101D400098473B685B68984722460146306AFFF730
:101D5000A9FF50B33B685B69D6E795F83B20AAB171
:101D60004046494606F012FDDFF84880104A18EB5D
:101D700000084FF0000949EB01090023404649469D
:101D800006F010FD844228BF0446D2E7A3FB0801F9
:101D900003FB0911E8E73369306AF2681844104020
:101DA000DAF81030BDE8F0471847BDE8F08700BF0B
:101DB00040420F003F420F002DE9F04F436893F877
:101DC000382085B00546002A64D193F83A30002BBC
:101DD00060D103681B6898472B68DB6998472F4BD5
:101DE00006680122002E08BF1E461F2302FA03F1D7
:101DF000B1425FFA83FB02D0013BF7D19B464768B3
:101E0000264C3B1F1D2B28BF20273B1F4FF0070AE6
:101E100016F1FF300AFA03FA4FF0000343F1FF31E5
:101E20003246C4FB0A0106F0BDFC6C682A68002338
:101E30002360636052680393CDE9000190472062FC
:101E40006C684FF000084FF000093A46C4E90A896F
:101E5000A66084F83BB00120002106F097FCDDE984
:101E60000023C4E90623039B84F8393084F83A3010
:101E700001380123E060C4F810A02846C4E90C89A9
:101E800084F83830FFF78EFE284605B0BDE8F04FE5
:101E9000FFF71CBF05B0BDE8F08F00BF40420F0048
:101EA00038B505460C46FFF787FF00F079F96B68F7
:101EB0001C60BDE8384000F07DB970B5044600F004
:101EC0006FF92368DB689847636893F83A201AB182
:101ED000BDE8704000F06EB9012283F839206368D4
:101EE0005B68A3B12046FFF75DFE65686E68D5E9C3
:101EF0000C01D6E90023994208BF904207D3F3684A
:101F00006B602B68002BEAD0B0689847E7E76368FE
:101F1000002283F839202046FFF7D8FED8E72DE9C4
:101F2000F84305460C4616461F46DDF8208000F0B3
:101F300037F92846FFF736FE6A68C4F80880C4E916
:101F400000675368002133B9E36069B954602846DB
:101F5000FFF7BCFE0FE0D3E900894F4508BF4645B7
:101F6000F2D31946DB68EEE7D2E90C23BB4208BF87
:101F7000B242CC60EBD2BDE8F84300F01BB938B5F3
:101F800005460C4600F00CF96A685368A34209D173
:101F9000DB6853602846FFF799FEBDE8384000F043
:101FA00009B91346002BF8D0DA689442F9D1E268F7
:101FB000DA60F2E738B50446FFF7FEFE00F0F0F80D
:101FC0002046FFF7EFFD6368D3E90C4500F0F2F817
:101FD0002046294638BD08B5FFF7ECFF08BD0000D4
:101FE000024B00221A7003F08FBB00BF9C1200202E
:101FF00008B503F0F5FA024B01221A7008BD00BFC4
:102000009C12002000487047B0900000024B1B68F3
:102010000BB10248184770470C020020B090000036
:10202000024B1B6803B11847704700BF68060020C9
:1020300006F028BB06F0D8BAF0B572B6224A234F94
:10204000002313604FF0E0224FF0FF36516801F09B
:102050000F0101311D469A0002F1604202F5614212
:102060004FEAC30EC2F88060C2F88061002202EB22
:102070000E043C440132082A84F80053F7D101339E
:102080009942E8DC124B4FF020625A6040F2FA525B
:102090009860DA6000221D6111469C1801320C2AFA
:1020A0002176FAD14FF0FF3259629A62094ADA6218
:1020B0001F221A6341680368002282F314889D4638
:1020C00082F310880847F0BD10E000E000E100E076
:1020D00000ED00E0020000C083B500F061F80521CA
:1020E00001A8FFF74DFD254D254F04269DF904302D
:1020F0001F2B8ABF2A464FF0A04203F01F03012482
:1021000004FA03F3C2F80835384600F097F99DF950
:1021100004301F2B86BF03F01F032A464FF0A04256
:102120009C40C2F80C45384600F088F9013EDDD1EC
:10213000144F04269DF904301F2B8ABF2A464FF006
:10214000A04203F01F03012404FA03F3C2F8083588
:10215000384600F073F99DF904301F2B86BF03F059
:102160001F032A464FF0A0429C40C2F80C45384657
:1021700000F064F9013EDDD1B6E700BF0003005076
:10218000F0490200801A0600EFF31080C04300F00F
:1021900001007047EFF30580003018BF0120704741
:1021A00008B502F077F9024A13680133136008BDDD
:1021B0006C060020044A136823B1013B13600BB97D
:1021C00002F070B9704700BF6C06002008B50E4BD6
:1021D0000121D3E84F2FC3E8401FD2B20028F8D125
:1021E0002AB1FFF7DDFFBFF34F8F20BFFDE7FFF7F9
:1021F000D1FF08B1FFF770FFFFF7C6FF0028F9D045
:10220000012000F094F800BFB0060020F0B51B4D8F
:102210008FB001AC35EA200528BF05460E461746AB
:1022200000213422204606F0D7F9154B01955B6951
:102230000493DA6B05925A6B1B6B06920793029715
:1022400003960894FFF7ACFF0E4A13680133012B85
:10225000136004D1342221460B4806F0B2F934222F
:1022600021460A4806F0ADF9094B1B680BB1074837
:102270009847FFF79FFF00200FB0F0BD0101FF80DE
:1022800018020020700600207C060020B406002002
:102290007406002000207047014B1878C0B27047C8
:1022A0007806002008B51146064B0124D3E84F2FCD
:1022B000C3E8454FD2B212B97246FFF7A7FFFFF746
:1022C00085FF00BF78060020034B186818B14FF057
:1022D000FF3101F067BA7047F0120020024B186816
:1022E00008B101F077BA7047F012002008B501205C
:1022F00000F01DF8074A084913681844884289BF4E
:10230000064B10600C224FF0FF308CBF1A6018464D
:10231000704700BF1002002000F80320F862002080
:1023200008B508B1FFF7D8FEFEE70120704708B5F1
:10233000FFF7F6FF0120704708B500F013FA08BD5B
:1023400008B500F017FA08BD10B50446037803F08D
:102350000303012B08D0FFF7B7FF237803F0030234
:10236000012A03D1FFF7BAFF002010BD43F002039A
:102370002370012010BD037823F0030343F0010311
:102380000370FFF7ABBF000013B5044606F0FAF880
:10239000034628B90090014622460248FFF782FF13
:1023A00002B010BD1F01018006F0F4B806F0F2B8CB
:1023B00007B5094AD2E85F0F431CC2E8513F002924
:1023C000F8D19BB22BB91288044800931946FFF745
:1023D00069FF03B05DF804FBF006002023010480D0
:1023E00007B50B4AD2E85F0F411EC2E8531F002B0E
:1023F000F8D14FF6FF7089B2814205D112880548A5
:1024000000931946FFF74EFF03B05DF804FB00BFD1
:10241000F00600202401048008B5FFF7C1FE064B3A
:102420001B889BB22BB902F0EDFEBDE80840FFF718
:10243000C1BE02F0C3FEF8E7F006002070B5044606
:10244000FFF7E0FD0646FFF7C6FD05463046FFF7FD
:10245000C2FD401BA042F9D370BD10B50446FFF782
:1024600099FE38B9FFF790FE20B12046BDE8104034
:1024700001F044BE4FF47A706043BDE81040FFF7AE
:10248000DDBF000030B585B0054610220C46684619
:10249000002106F0A1F8084B002C08BF1C462B1D9C
:1024A00002931C23039368460B230094019301F0CD
:1024B00061F9286005B030BDDC90000010B5002146
:1024C00004460162FFF7DEFF204610BD37B5044623
:1024D0004FF0FF31006801F065F9054628B9236A1D
:1024E00001332362002003B030BDFFF7D5FE034661
:1024F0000028F7D1009001462A460148FFF7D2FE96
:102500001501028037B50546006801F063F90446FD
:1025100028B92B6A013B2B62204603B030BDFFF780
:10252000BBFE03460028F7D1009001462246014831
:10253000FFF7B8FE1701028010B5034B0360044695
:10254000FEF732FF204610BD0091000010B5044692
:10255000FFF7F2FF2046FFF727FF204610BD0000DF
:1025600010B50446FEF7FAFE0A4B23600022002352
:10257000C4E90823C4E90A23A069FFF71BFD01236E
:1025800084F830300023C4E9080184F83130204653
:1025900010BD00BF00910000024B0349586801F0D4
:1025A0008DBD00BF7C910000252A000090F830000E
:1025B0007047F8B50446FEF7F1FE002384F8313089
:1025C000012384F83030A069FFF7F4FCD4E90867F0
:1025D000801B4FF0000361EB07014FF47A7206F0A5
:1025E000E1F850EA010303D010F1FF3041F1FF316F
:1025F0004FF47A75A0FB0523B61805FB01335F4144
:10260000D4E90A2312184B41C4E90867C4E90A2334
:10261000F8BD70B504460D46FFF7C2FDD4E90801C8
:102620004FF47A726A43851841F100062A46334610
:102630002046FEF7A9FEBDE87040FFF7BBBD38B5E8
:1026400004460D46FEF7AAFE002384F8303001232D
:1026500084F8313029462046BDE83840FFF7D9BF1D
:10266000FEF79CBED0E90A23013243F10003C0E922
:102670000A23D0E9082312F57A7243F10003C0E976
:102680000823704710B50446FFF78AFD94F83130EF
:1026900033B1012384F83030BDE81040FFF78ABD24
:1026A000054B4FF0806220465A60FFF7DBFF0121A7
:1026B0002046FFF7AEFFEFE700ED00E008B5094B5D
:1026C000094A1A60094B9B1A094A1360094B0A4AC6
:1026D0001A600A4B9B1A0A4A136000F051F800F086
:1026E00065F800BF5807002000F803200000042010
:1026F00054070020EC0600200063002000F80320AF
:10270000E80600200E4838B50E4B03600B251C244C
:102710000D4B4560C460836001F02CF80B4B1860D2
:102720000B480C4BC46080E828000B4B836001F021
:1027300021F80A4B1860BDE8384005F0FFBE00BF25
:10274000240700200C9100003807002034070020E7
:10275000F40600201991000008070020040700205B
:1027600005F0DABC024B4FF0FF31186801F01AB8DF
:1027700034070020014B186801F02CB83407002002
:1027800008B502F03FF9BDE8084000F00CB870470A
:1027900008B5FFF7B7FFFFF7FAFFFFF77BFDBDE8CE
:1027A0000840FFF7DDBF00F0EBBA000007B517489F
:1027B000174B03600B2343601C23164CC360164B5E
:1027C0008360164B23614FF4805363614423E360BD
:1027D000134BA3601823A361124B236000F0CAFFC0
:1027E000114B224618600021104801F0D7FB034628
:1027F00028B90090224619460D48FFF753FD00F016
:10280000D7FA002300931A46F5E700BFBC12002058
:1028100023910000CC120020A0120020F81200200A
:102820005C07002033910000F01200209127000087
:102830001D01018008B500F099F8000007B5411EA0
:1028400002460023042923D8DFE801F0030A10160A
:102850001C0000931148002301221946FFF722FDB6
:1028600000930023022219460D48F7E70093002346
:10287000032219460B48F1E700930023042219466E
:102880000948EBE700930023052219460748E5E7CE
:102890000093002319460648E0E700BF25010280A7
:1028A0002601028027010280280102802A0102807D
:1028B0000001028010B501F089FB034B1B6813B1C6
:1028C000BDE81040184710BDA0070020F8B500F083
:1028D00085FA054608B9FFF76BFD114C114F2068CA
:1028E0002946FFF7ACFE00262068FFF75FFE68B9B7
:1028F00066B9FFF755FCBB7A33B9FFF78DFDFFF7DB
:1029000059FCBFF36F8FEFE70126F8E70DB9FFF72A
:1029100067FD2068FFF74DFEBDE8F84000F072BA91
:10292000E00700201802002038B5094C23684BB995
:10293000FFF72AF9074D01462846FFF711FE2560EB
:10294000FFF72AFE20680121BDE83840FFF761BE8D
:10295000E0070020A8070020014B1868FFF780BEA1
:10296000E007002070474FF0FF30704708B5024C79
:1029700023689847FCE700BF140200201EF0040FF4
:102980000CBFEFF30880EFF30980816911F8021C96
:1029900091BB01B590E80F10E047BDE800508CE80E
:1029A0000300244B93E80600914208BF704741B9E9
:1029B0001EF0100F10D12049086820F001000860B7
:1029C0000AE02CE9F00F1EF0100F08BF2CED108A62
:1029D000C1F838C081F822E01A6092F82210906B9A
:1029E00061F0FF0E1EF0100F08BFB0EC108AB0E8C7
:1029F000F00F80F309887047104A13689942FAD89B
:102A000001B552F821C00FC8E047BDE80050CCF82E
:102A10000000704701B500F03DFFBDE80140EFF355
:102A2000098CBEE701B500F0FBFEBDE80140EFF305
:102A3000098CB6E72C02002034EF00E0E49100009E
:102A400008B5014610B1132001F016FA002008BDA8
:102A500008B5EFF3058333B16FF0050000F014F80B
:102A60006FF0050008BDEFF31083002BF4D1EFF3F6
:102A70001183002BF0D1DFF808C000DF08BD00BFD4
:102A8000412A000070477047704770477047EFF366
:102A900010832BB9EFF31180003018BF012070476D
:102AA0000120704770B54D4C217A012900F08780D4
:102AB00031B14FF0FF30FFF7E5FF4FF0FF3070BD51
:102AC000474D9C2204F1080005F086FDEB68EE6A94
:102AD000E3652B8AA4F85430296BAB682364304635
:102AE00000F0A6F908B1C4F880606E69A9693046A3
:102AF00000F09EF9002864D06667EE69296A3046C6
:102B000000F096F9002860D0A6676E6AA96A304680
:102B100000F08EF900285CD0E6676E6B3EB1F3687A
:102B2000B2683168304600F0EFF9C4F88460AE6BEB
:102B30003EB1F368B2683168304600F0E5F9C4F898
:102B40008860EE6B3EB1F368B2683168304600F0E1
:102B5000DBF9C4F88C602E6C3EB1F368B268316862
:102B6000304600F0D1F9C4F890606E6C3EB1F36865
:102B7000B2683168304600F0C7F9C4F89460AE6CB2
:102B80003EB1F368B2683168304600F0BDF9C4F870
:102B90009860EE6C3EB1F368B2683168304600F080
:102BA000B3F9C4F89C602D6D3DB1EB68AA68296843
:102BB000284600F0A9F9C4F8A05001232372002090
:102BC00070BDD4F88030636797E7D4F88030A3678E
:102BD0009BE7D4F88030E3679FE700BF180200202E
:102BE0007C91000038B5264C237A012B06D06FF07B
:102BF0000600FFF747FF4FF0FF3038BD01F0AEF998
:102C000010B94FF0FF30F4E71E4A1F4D1F496868A6
:102C1000FF2382F8223092F82230D26863F0FF035B
:102C2000DB4314BFB3FA83F32023C3F12003C2F3C1
:102C30000222934298BF531CFE2202FA03F3114A68
:102C4000DBB2D37701F03AFA0028DAD1FFF78BFE36
:102C50002061FFF769FE0E4800F05EFF00F0C2FF42
:102C60002B6813F0010F4FF0020304D083F3148894
:102C70002372002038BD032282F31488F8E700BFD6
:102C80001802002000ED00E07C910000252A0000E1
:102C90003402002010B5134C237A022B05D06FF0BC
:102CA0000700FFF7EFFE002010BDFFF755FE0123E0
:102CB0006372BFF34F8F0C4A5168C90042BF4FF097
:102CC00000615160A372E36A4BB1D869636C1BB1B8
:102CD0001B69984228BF18460423237210BD4FF089
:102CE000FF30F3E71802002000ED00E0F8B5214CBA
:102CF000237A042B05463BD1E3680344E360E36A8F
:102D000053B106460127DA69B24225D8DF61B61A07
:102D100000F030FFE36A13BB636C4BB10126186906
:102D2000A8421FD81E61236D2D1A9847636CE3B922
:102D300002230020237200F05FFF00236372BFF3C1
:102D40004F8FA27A22B1A3720B4B4FF080525A6080
:102D5000BDE8F840FFF7E8BD961BDE61DCE7002E1A
:102D6000D1D1D9E7401B1861E2E7002DD7D1DFE7C9
:102D7000F8BD00BF1802002000ED00E07047000021
:102D800008B5FFF7FBFFEFF3058333B16FF00500E4
:102D9000FFF778FE6FF0050008BDFFF778FE00280A
:102DA000F4D1DFF808C000DF08BD00BFA52A00008D
:102DB00008B5EFF3058333B16FF00500FFF762FE4E
:102DC0006FF0050008BDFFF762FE0028F4D1DFF8C0
:102DD00008C000DF08BD00BFE52B000008B5EFF319
:102DE00005832BB16FF00500FFF74CFE002008BDF6
:102DF000FFF74DFE0028F5D1DFF804C000DF08BD65
:102E0000952C000008B50246EFF305832BB16FF057
:102E10000500BDE80840FFF735BEFFF738FE002883
:102E2000F5D11046DFF804C000DF08BDED2C00002E
:102E300010B5A8B140EA010313F007030DD117291B
:102E40000DD9016008390C181022846042600B50C3
:102E500081684A60C360012010BD002010BD184683
:102E600010BD70B5B0B100292ED032F003032BD1C4
:102E70000F3121F0070100F108052E686C68731B03
:102E800024F003041B1B994205D933683546002BF7
:102E9000F3D1184670BD446803680C44446018447C
:102EA000083843689C4288BF44606B6811431BB973
:102EB000696005F1080070BD23F00303E818EE50C7
:102EC00041602860083070BD002070BD10B5D0B1E1
:102ED000C1B1A1F1080400F108030022A34209D105
:102EE000596821F003044168091B41603AB95A60EE
:102EF000012010BD19681A4621B10B46EEE71B6888
:102F00001360F5E7084610BD30B5C0B189B1C2B154
:102F1000CBB10024446002FB01F41D190160826002
:102F2000C360436105611846013904D1A21A995062
:102F30000121084630BD851805602846F4E70146A2
:102F4000F7E71146F5E71946F3E710B50346B0B1C8
:102F500000F1140252E8000F10B9BFF32F8F04E004
:102F6000016842E8001404B1F4E740B1043353E8C7
:102F7000002F511C43E8001404B1F8E710BD10BD48
:102F800030B5F0B1C3688B421BD80369994218D29F
:102F900000F114031A680A60BFF35F8F53E8002F33
:102FA0000C689442F6D143E8001505B1F2E704300D
:102FB00050E8003F5A1E40E8002101B1F8E7002028
:102FC00030BD6FF0030030BDEFF310832BB9EFF38A
:102FD0001180003018BF0120704701207047036B3B
:102FE00030B5E3B1CD780024DA78AA420FD31A467F
:102FF0004A608C608AB19160A4B16160283050E869
:10300000003F5A1C40E8002101B1F8E730BD5A6882
:103010001C46002AECD01346E6E7C162ECE74B60A1
:103020008B60C1620163E9E74B688A6823B19A60EB
:103030008A681AB153607047C262F9E70363704748
:10304000F8B58678044696B3C5680146002628463A
:1030500005F10C07FFF7E8FF267021463846FFF719
:103060008FFFAB68002B48D03846FFF76EFF044651
:10307000002842D0284600F04FFD32460746314630
:1030800000F0E6FD384600F08FFD6A6A8168074669
:1030900004F10C0005F095FAF9232370A670FB6883
:1030A000E37021462846BDE8F840FFF798BF8568E1
:1030B000AB68002BF5D05B78832BF2D1284600F06B
:1030C0002BFD32463146074600F0C2FD384600F07F
:1030D0006BFD06466A6A806804F10C0105F071FA1E
:1030E000F3680BB1E2781A7000232370214605F1D2
:1030F0000C00BDE8F840FFF743BFF8BD2DE9F74FDE
:103100008946074600B131B96FF003010020FFF78F
:10311000BDFC00207BE0CD1C25F003050C3514BF61
:10312000B5FA85F12021B0FA80F30B441F2BEBDDBB
:1031300005FB00FAF2B19468D2F800801669536971
:103140003CB1A10702D1D268332A05D86FF008013B
:10315000DCE7D268002AF9D13EB116F0030B01D1A9
:103160009A4557D96FF00901D0E7002BFAD11CB16D
:103170009B460CE090461646284BD3F8A000E0B1E1
:10318000FFF7E3FE0446A8B14FF0010B3EBB234B13
:103190000193D86F00225146FFF763FE019B06465C
:1031A000B8B9BBF1000F05D0D3F8A000214658B143
:1031B000FFF7E6FE6FF00401A8E701223421D3F8FF
:1031C0008000FFF74EFEDDE7D3F88000FFF77EFEBC
:1031D000F0E75246002105F0FFF94BF0020BFA230D
:1031E00023700023A360A362E36223632A4633466D
:1031F00084F802B0C4F80480C4F82490394604F17D
:103200000C00FFF781FE054B054A1A67204603B004
:10321000BDE8F08F002CE2D1AEE700BF180200201D
:10322000413000002DE9F0410C461746984605460E
:1032300018B10378FA2B00D141B928466FF0030189
:10324000FFF724FC6FF00300BDE8F0818368C3B191
:103250005B78832B15D100F05FFC0122064600212C
:1032600000F0F6FC304600F09FFC06466A6A806873
:10327000214605F0A6F9F06858B307700020BDE8B4
:10328000F08105F10C00FFF760FE064670B12146A3
:103290006A6A0C3005F095F90024F9233370B47094
:1032A000F77031462846FFF79AFEE7E7B8F1000FBE
:1032B00011D04146932000F0DFFD40B1084B284675
:1032C000596900F017FCEFF309839C60DF606FF031
:1032D0000100BDE8F0816FF00200BDE8F08100BFA1
:1032E0001802002010B500F1280353E8002F12B98E
:1032F000BFF32F8F04E0511E43E8001404B1F4E73C
:103300000AB9002010BDC06A01230028F9D0821C30
:10331000D2E84F1FC2E8443F04B1F9E711F0FF0FB4
:1033200001D08068F1E710BD2DE9F0410F46144649
:103330009846054618B10378FA2B00D141B92846C2
:103340006FF00301FFF7A2FB6FF00300BDE8F0810F
:10335000FFF7C8FF064600283BD001462846FFF786
:1033600063FE6A6A06F10C01384605F02AF90CB1D1
:10337000F3782370002405F10C0734703146384689
:10338000FFF7FEFDAB6813B90020BDE8F0813846B9
:10339000FFF7DBFD06460028F6D0284600F0BCFB10
:1033A00021460746012200F053FC384600F0FCFBA2
:1033B0006A6A8168074606F10C0005F002F9F923F4
:1033C0003370B470FB68F37031462846FFF707FE90
:1033D000DAE7B8F1000F11D04146832000F04CFD30
:1033E00040B1084B2846596900F084FBEFF309838C
:1033F0009F60DC606FF00100BDE8F0816FF00200BB
:10340000BDE8F0811802002010B50446EFF30583F3
:1034100033B16FF005010020FFF738FB002010BD2D
:10342000FFF7D2FD0028F4D12046DFF808C000DF06
:1034300010BD00BFFD3000002DE9F04106460F46EB
:1034400090461C46EFF305834BB19EB930466FF0B2
:103450000301FFF71BFB6FF00300BDE8F081FFF7EE
:10346000B3FD0028F1D130462346DFF850C000DF1D
:10347000BDE8F0813378FA2BE8D1002FE6D0002C9C
:10348000E4D106F10C00FFF760FD054688B1726AD1
:1034900039460C3005F095F8F92328462B70AC70AE
:1034A00085F803806F60AE6000F03CFA2046BDE80E
:1034B000F0816FF00200BDE8F08100BF253200000E
:1034C000F8B504460F4616461D46EFF3058343B193
:1034D0008CB920466FF00301FFF7D8FA6FF00300B4
:1034E000F8BDFFF771FD0028F2D120462B46DFF82A
:1034F00044C000DFF8BD2378FA2BEAD1002FE8D0D2
:10350000002DE6D12046FFF7EDFE054670B100F133
:103510000C01626A384605F054F80EB1EB7833704E
:103520002846EC6000F0FEF90020F8BD6FF00200C4
:10353000F8BD00BF29330000EFF310832BB9EFF380
:103540001180003018BF0120704701207047000033
:1035500070B5002835D0846890E8600064B114F03C
:10356000030302D1C2681B2A19D86FF0080100209A
:10357000FFF78BFA002070BDC368002BF5D1124B0A
:10358000D3F8940030B901221C21D3F88000FFF752
:1035900068FC01E0FFF7D9FC044668B10123F5227D
:1035A000A37000232270E6706560A360E36023616E
:1035B00063612376204670BD6FF00401FFF765FA62
:1035C000F8E705460646DAE718020020284B70B5F2
:1035D0005D6904460E4635B96FF00701FFF755FAED
:1035E0004FF0FF3070BD10B10378F52B07D02046A7
:1035F0006FF00301FFF749FA6FF0030070BD037E1F
:1036000053B9EA6AC5604261036102B11061EC62BC
:1036100001232376002070BDC278D1070DD5C16883
:10362000A9420AD1FF2B06D16FF00F01FFF72DFA47
:103630006FF0020070BD0133EBE7002EF8D0930766
:103640000AD5E06895F9203090F920209A4203DAF3
:1036500080F8203000F073FA3146532000F00CFC63
:1036600018B12946204600F045FA6FF0010070BD00
:103670001802002038B52E4B5A69044632B96FF053
:103680000701FFF702FA4FF0FF3038BD10B10378A1
:10369000F52B07D020466FF00301FFF7F6F96FF026
:1036A000030038BD037E33B96FF00E01FFF7EDF96B
:1036B0006FF0020038BDC168914202D06FF00D0179
:1036C000F4E7013BDBB2037623BB43690BB101692D
:1036D0001961216901B34B61E3789B0705D592F924
:1036E0002110D36AD3B982F82010A3687BB1204699
:1036F00000F012FA00220546114600F0A9FAEB6A22
:103700006361002323610123E560EC6223760020DE
:1037100000F072FA002038BDD362DDE7986820B16E
:1037200090F920008142B8BF01465B69DAE700BF2B
:10373000180200202DE9F0410446002601270CB9AB
:10374000BDE8F081E378D4F814801B0710D5A36896
:1037500026766BB1204600F0DFF9002205461146BF
:1037600000F076FAEB6AE56063612661EC62277629
:103770004446E4E708B50246EFF3058333B16FF042
:1037800005010020FFF781F9002008BDFFF7D4FEF6
:103790000028F4D11046DFF808C000DF08BD00BFE4
:1037A0005135000008B50246EFF305833BB11046E2
:1037B0006FF00501FFF769F96FF0050008BDFFF72D
:1037C000BBFE0028F3D11046DFF804C000DF08BDBF
:1037D000CD35000008B50246EFF305833BB1104636
:1037E0006FF00501FFF751F96FF0050008BDFFF715
:1037F000A3FE0028F3D11046DFF804C000DF08BDA7
:103800007536000010B5D0E85F3F5A1C914200D8D1
:103810000022C0E8542F04B1F5E798B210BD0000B3
:1038200038B51B4CFFF79EF8E3680133E360236D66
:1038300003B1984700F09EF9002000F0DDF9236CF9
:103840002BB1A26BA1698A4202D0A163E36338BDA8
:10385000E36B0BB1013BE363E36B002BF7D1237AFE
:10386000022BF4D1656A002DF1D095F9201092F960
:1038700020309942EBD1284600F057F9A06B00F0B8
:1038800071F9284600F0AEF9A563236CDEE700BFAE
:103890001802002070B5224C04F1560504F15A06B6
:1038A000B4F85410D5E85F3F13B9BFF32F8F04E08D
:1038B0005A1EC5E8502F00B1F4E79BB25BB3304607
:1038C000FFF7A0FFE36D53F8200020B30378F13B2E
:1038D000082BE5D801A252F823F000BF01390000FF
:1038E000A138000007390000A1380000A13800000D
:1038F0000B3900000F390000A13800001339000017
:10390000236E9847CCE7636EFBE7A36EF9E7E36E9F
:10391000F7E7236FF5E70020BDE8704000F06CB9D1
:103920001802002070B5164C0546B4F8541004F186
:103930005602D2E85F3F994202D8BFF32F8F04E0CE
:10394000581CC2E8560F06B1F3E79BB2994210D952
:1039500004F15800FFF756FFE36D43F82050637AF7
:1039600023B9084B4FF080525A6070BD0123A372F7
:1039700070BD29460220BDE87040FEF75FBF00BF62
:103980001802002000ED00E0EFF310832BB9EFF3F5
:103990001180003018BF01207047012070470000DF
:1039A00010B50123094A437090F92010536A1C3264
:1039B0001BB193F920408C4205DCC26083609060AB
:1039C00003B1D86010BD1A469B68F1E718020020C9
:1039D000014B5869704700BF1802002008B5FEF778
:1039E00069FFDFF810C000DF4FF0FF310020FFF764
:1039F0004AF8FEE7F93E000012F0020F10B502F09F
:103A0000010222D100F1280382B153E8000F00EA3D
:103A100001028A4203D0BFF32F8F002005E020EA85
:103A2000010243E8002404B1EFE710BD53E8000FA2
:103A3000084203D1BFF32F8F002005E020EA0102E6
:103A400043E8002404B1F1E710BD806A01EA0003F5
:103A50001AB1994218BF002010BD002B08BF0020EA
:103A600010BD000010B5C4694169631C03690AD127
:103A700003B1596142691AB113610023436110BD5A
:103A8000064A136310BD1BB1DA6959612244DA6139
:103A90004269002AF0D1014AD36210BD1802002009
:103AA00010B500234370037083789A07044608D545
:103AB00013F0100F016B0E4B0FD0D3F88400FFF7FB
:103AC0005FFAA378DB0712D5094BD3F888002146AB
:103AD00038B1BDE81040FFF753BA586FFFF7F6F959
:103AE000EFE7D3F88000BDE81040FFF7EFB910BD55
:103AF0001802002010B591F9202083681BB193F9BA
:103B00002040944205DAC8608B60816003B1D960BF
:103B100010BD18469B68F1E783689A68826002B11D
:103B2000D0600022DA6018467047C36833B18268FB
:103B30009A60826802B1D3600023C360704710B5F9
:103B40000146044664B12378F12B07D00846FFF7FD
:103B5000ECFF2046BDE81040FFF7CCBFE468F1E77A
:103B600010BD00000123014643700148FFF7C2BFAA
:103B70003402002038B50B4DEC6A94B1E369013B87
:103B8000E36173B92046FFF7D0FF2046FFF7EAFF55
:103B9000246924B1E369002BF4D000236361EC6253
:103BA00038BD38BD1802002090F82230826B13F027
:103BB000100F0CBF6020202010447047074B59693C
:103BC00051B10B6B8A6B934203D21A68044B9A4231
:103BD00002D00120FEF732BE704700BF180200205D
:103BE000A52E5AE208B502234370024B9861FFF7F5
:103BF000E5FF08BD1802002010B5144B04461A7AE0
:103C00005969A0B9022A1FD15C6AECB194F920204D
:103C100091F920309A4217DD2046FFF786FF0846CB
:103C2000FFF7BEFE2046BDE81040FFF7DBBF022ACB
:103C300005D190F9202091F920309A42EFDC2046FE
:103C4000BDE81040FFF78EBF10BD00BF1802002076
:103C500038B504461546FFF7A7FF01602046FFF779
:103C600001FF20461DB1BDE83840FFF7C5BFBDE8E4
:103C70003840FFF777BF10B54378332B04460CD19B
:103C8000416A90F82320FFF7B7FE014628B120468D
:103C90000022BDE81040FFF7DBBF10BD2DE9F04F5B
:103CA00085B08246029128B96FF00301FEF7EBFE62
:103CB0000020B8E0002A48D09468166955699769D1
:103CC00044B1A30702D1D368432B06D86FF0080193
:103CD0000020EBE7D368002BF8D13EB1700702D18A
:103CE000002D40F0B9806FF00A01F1E72FB17B1E83
:103CF000372B03D96FF00B01EAE718271DB16907CD
:103D0000F1D1472DEFD95368D2F8009001934CBB05
:103D1000544BD3F88800F0B1FFF717F90446002898
:103D200000F097804FF00108002E36D1DFF834B153
:103D3000DDB94D4ADBF88400556DB0B1FFF705F9E8
:103D4000D8B148F01008064623E0914618271546DA
:103D500016460192DCE701224421D3F88000FFF7E8
:103D600080F8DBE74FF00008DEE732462946DBF853
:103D70007400FFF776F80028E5D1B8F1000F5CD0A9
:103D8000DBF88820002A51D021461046FFF7F8F8CA
:103D9000002448F00208002C5BD0F123237001239B
:103DA00063709DF80430E3700023A360E360236137
:103DB0006361A361E36184F823306362A362E36219
:103DC000A5F1400333447FB2A363FD22274B84F85F
:103DD0000280C4F8049084F8207084F8217084F87C
:103DE000222026636563C4F83CA033601E4B1B6829
:103DF0005B0724D4A36B00201A1F03F1300142F8A3
:103E0000040F9142FBD11A4A5A634FF08072DA6371
:103E1000029A1A62C3F838A0124B164A1A66204654
:103E2000FFF7EAFE204605B0BDE8F08F2146DBF83B
:103E300080000392FFF74AF8AAE74446A9E7AD08D5
:103E4000113D4FF0CC33002DD4D046F8043F013D56
:103E5000F9E76FF004013BE7002F7FF448AF182724
:103E60004DE700BF180200207C910000A52E5AE209
:103E7000DD390000773C000038B51D4C237A022B59
:103E800034D1636A002B31D063694A1C587015D154
:103E9000226B00216AB94FF0FF30D86159611A6175
:103EA00051B10B611348FFF737FEFFF79BFE01206E
:103EB00038BD11461269EDE72363F3E7E26A00209B
:103EC00012B1D569A9420BD2D96158611A6158B1B2
:103ED0000361002AE6D0D0695361411AD161E1E75C
:103EE0001046491B1269EBE7E362F2E7002038BD98
:103EF000180200203402002038B5164D2B7A022B10
:103F000027D16B6A2BB36C69E06AFFF713FCA069D9
:103F100018B100221146FFF79BFEEFF309830E480C
:103F2000A363FFF7F9FDFFF75DFE00236B61E37804
:103F3000DB0701D5A36923B12046BDE83840FFF770
:103F4000AFBD04226270E3606B6BA36003B1DC6001
:103F50006C6338BD180200203402002038B50B4CC9
:103F60000B48A26D0B4D0021FFF798FE636EA8620F
:103F70004BB1E26D08480021FFF790FEA8640030C5
:103F800018BF012038BD012038BD00BF7C91000062
:103F900035280000180200208140000010B50446BA
:103FA000EFF3058333B16FF005010020FEF76BFDE1
:103FB000002010BDFFF7E8FC0028F4D12046DFF810
:103FC00008C000DF10BD00BF9D3C000008B5EFF346
:103FD000058313B1054B586908BDFFF7D5FC0028D0
:103FE000F8D1DFF80CC000DF08BD00BF18020020C8
:103FF000D13900000C4A536C30B5002413B11D694F
:10400000A9420AD201618460C3601BB11D69986036
:10401000691A19612CB1E06030BD1C46491BDB6890
:10402000ECE7506430BD00BF1802002070B5134D9E
:104030006C6C04B32369013B236101262369D3B966
:10404000E3680BB1A2689A606B6400231A4604F11E
:104050001801E86CFFF7F0F918B121460320FEF7CC
:10406000EDFBE378012B07D161692046FFF7C2FF22
:104070006C6C002CE2D170BD6670F9E7180200206C
:104080000B4B0C4C07B51A6E586E0821FFF7BCF9A4
:10409000094AE06422654FF0FF3300226946E06C74
:1040A000FFF70EFA0028F6D10198009B9847F2E737
:1040B0007C910000180200202D400000A8B10C4B9C
:1040C0001B68B3FBF0F00138B0F1807F0DD2094BD3
:1040D000FF2283F82320A3F54F6306221A6058605D
:1040E00000209860044B187070474FF0FF30704705
:1040F000BC02002000ED00E0300E0020FEF7A8BC5E
:104100000749084A084B9B1A03DD043BC858D050A6
:10411000FBDC064880470648804706480047000009
:10412000A099000000020020A00300207D410000B3
:10413000DD4900006D010000FEE7FEE7FEE7FEE757
:10414000FEE7FEE7FEE7FEE7FEE7FEE71030024B84
:1041500043F82010704700BF00000020054B1B688B
:10416000082B01BF044B1868B0FA80F0400918BF53
:1041700000207047300100103401001008B5FFF72F
:10418000EDFF40B14FF080430022C3F80C21C3F88B
:104190001021C3F83825FFF7E1FF002846D04FF083
:1041A0008052544BD2F80414C3F82015D2F80814E6
:1041B000C3F82415D2F80C14C3F82815D2F810143B
:1041C000C3F82C15D2F81414C3F83015D2F818140B
:1041D000C3F83415D2F81C14C3F84015D2F82014D3
:1041E000C3F84415D2F82414C3F84815D2F828149B
:1041F000C3F84C15D2F82C14C3F85015D2F830146B
:10420000C3F85415D2F83414C3F86015D2F8381432
:10421000C3F86415D2F83C14C3F86815D2F84014FA
:10422000C3F86C15D2F84424C3F87025FFF796FF45
:1042300010B1314B314A1A60FFF790FF18B1304B83
:10424000FB22C3F81825FFF789FF48B12D492E4BF3
:104250000A681B6822F00F0203F00F0313430B6080
:10426000FFF77CFF18B1294B4FF400721A60FFF77B
:1042700075FF48B14FF08043D3F80024D20744BF04
:104280006FF00102C3F80024214AD2F8883043F4C9
:104290007003C2F88830BFF34F8FBFF36F8F1D4B91
:1042A0001D4A1A604FF0804301220021C3F81825EF
:1042B000C3F804119A60D3F80421002AFBD01749EF
:1042C000CA6842F08072CA60D3F85C2542F480323A
:1042D000C3F85C25D3F85C2542F00302C3F85C25E3
:1042E0004FF0A04340F20132C3F848270C4B0022A4
:1042F0001A6108BD00C000408C5600404881030090
:1043000000F00040E40E00405802001040960240C9
:1043100000ED00E0BC0200200090D003F0ED00E0D2
:10432000000004E00D4B07B51A6842B100221A6084
:104330001B680B4A0193019B136801331360094BFF
:104340001A68094B0AB91A782AB11A780AB10022F8
:104350001A70FDF71DFC03B05DF804FB0411014069
:10436000340E002044110140310E00202DE9FF41A0
:10437000DFF88C801C4E98F800501C4C5DB1002377
:10438000336033680193019B4FF40033C4F8083362
:1043900004B0BDE8F081164B164901271F601120BB
:1043A000FFF7D4FEC4F80855356033680393039BC8
:1043B000114B1D601B680293029B4FF00213C4F85F
:1043C00048330223C4F804330C4B4FF4003240212D
:1043D000C4F8082383F81113C3F880211A602760FA
:1043E00088F80070D4E700BF44110140001001407C
:1043F00004100140254300000411014000E100E0E9
:10440000320E0020094B01221A60094A4FF4003392
:10441000C2F80833074AC2F88030BFF34F8FBFF3AA
:104420006F8F054B00221A70704700BF04100140C7
:104430000010014000E100E0320E002073B5044698
:104440000E461546FDF7ACFE104B24F07F40D3F826
:104450000445A04204D0013424F07F44A04202D19C
:10446000023020F07F4006F5A87643F82600D3F806
:104470000413294006D1064A116012680192019A7C
:10448000C3F80453FDF796FE02B070BD0010014062
:1044900044110140024803780BB101F0CFB97047D5
:1044A000C0020020024B012200201A7001F0D4B992
:1044B000C00200200B4B187810B5002288B10A48C2
:1044C0001A704FF08051C2604C690B690749426015
:1044D00063438260036101F07AFE003018BF01205F
:1044E000404210BDC102002078030020A4920000C9
:1044F000002070472DE9F0410E4602F079FD0D4F86
:10450000DFF8348005460424401BB84201D8042C4F
:1045100005D0201C18BF01204042BDE8F0810023D7
:1045200001223146404601F091FE044602F060FD52
:10453000EAE700BF3F0D0300780300202DE9F04FAC
:1045400085B03ABB4FF0FF3005B0BDE8F08F2B6867
:10455000039302F04DFD06EB050B8246002300930A
:1045600003AA04235946404601F03AFE044602F0ED
:104570003FFDA0EB0A00484509D90435002CE1D1E4
:10458000BD42E4D1201C18BF01204042DCE7042CCE
:10459000E4D0F2E723F00303D71815460E248E1A51
:1045A000DFF80880DFF80890EAE700BF7803002012
:1045B0003F0D0300024B1869DB68C01A704700BF4B
:1045C00078030020064BDA688A4205D81A699142BE
:1045D00002D25B68186870474FF0FF30704700BF29
:1045E000780300200420704700207047FF207047A8
:1045F000104B10B502460446D3E9000104F0BAF8A6
:10460000002100F0010050EA010312D00A4B1A5DAC
:10461000910706D5D20604D42046BDE8104001F02B
:1046200035BF1B5DDB0604D52046BDE8104002F017
:104630007DB810BD280F0020F80E00201F288BBF6A
:1046400000F01F030346174A4FF0A04203F5E07342
:1046500070B552F82330C3F30143032B124B0246CB
:104660000446D3E900010CBF0125022504F082F8BD
:10467000002100F0010050EA010311D00B4B012D85
:104680001B5D02D15A0602D470BD9B0608D5084BAB
:10469000084A1B6852F824002946BDE870401847B4
:1046A00070BD00BF00030050300F0020F80E002046
:1046B000380F0020380E002073B5434D434E2B5C5D
:1046C00013F0010F044601D1DB0671D52B5D98076D
:1046D00004D5C3F30013DAB2002A4FD09DF8063098
:1046E00003F0FD036FF300038DF8063003238DF80C
:1046F00004302B5DC3F38103DAB2012A02D0032A0E
:1047000018BF00238DF805302B5DD90626D5304A19
:1047100001A9204601F020FF2E4B2246D3E90001DB
:1047200004F028F8002100F0010050EA010308D04D
:104730002B5D5A0601D49B0603D50121204601F0CA
:1047400089FF22460120002104F020F8D6E9002349
:1047500010431943C6E9000102B070BD1F2C234667
:104760009DF8052086BF1C4904F01F034FF0A041AF
:1047700003F5E073920041F82320E2E71F2C8DF847
:10478000063088BF144BADF8042094BF4FF0A0430F
:1047900004F01F02D3F8043598BF2246D34003F03B
:1047A000010301A920468DF8053001F0FBFDC8E7A3
:1047B00002460021012003F0E9FFD6E9002322EAA6
:1047C000000023EA0101C5E7F80E0020280F0020B1
:1047D0003D460000300F00200003005010B501706E
:1047E000013104460CD007490620FFF7AFFC01F069
:1047F00097FD054994F900208B5C43F001038B542D
:1048000010BD00BFA1670000F80E002038B50446B7
:1048100000780D46FFF7ECFE94F90000044B1A5C9B
:1048200065F383021A54C0B2BDE83840FFF744BFB5
:10483000F80E002038B5044600780D46FFF7D8FE84
:1048400094F90000044B1A5C65F341021A54C0B29B
:10485000BDE83840FFF730BFF80E00200228DCBF6B
:10486000014B43F8201070473C0F00200228DABFAC
:10487000024B53F820004FF0FF3070473C0F0020F0
:104880002C4BF0B500241D4693F90060771C07D12E
:1048900093F90170013703D193F90270013715D0F4
:1048A00086423DD193F901608E4239D193F902607D
:1048B000964235D105EBC4041F4E636803EB4305F4
:1048C000741970556170A2705C1C27D11A4C0223B8
:1048D0002546264695F90670874207D195F9077057
:1048E0008F4203D195F90870974217D0013B5F1CA6
:1048F000A5F10305EED1022394F90650013512D13A
:1049000094F9075001350ED194F9085001350AD1B8
:1049100003EB4305741970556170A2701846F0BD21
:1049200001340833B0E7013B5D1CA4F10304E3D17B
:104930000223F3E75C920000C202002070B5254E0E
:104940000446002316F933506A1C06EBC30011D04D
:1049500090F90120B2F1FF3F0CD0A5421ED18A424E
:104960001CD140681C4B03F8104003EB4003451C6E
:1049700059702DD1184B93F9000084421A4603D187
:1049800093F901308B420BD092F902309C420BD14B
:1049900092F903508D4207D1012070BD0133D1E758
:1049A000002070BD00230CE0013003D192F901001A
:1049B0000130F7D00133EFD192F903300133EBD15D
:1049C000012302F8134002EB43021846517070BDF8
:1049D00070BD00BF64920000CB020020064A074869
:1049E000002350F8231042F823100133402BF8D154
:1049F000034B9A60704700BF0000002000000000D9
:104A000000ED00E070470023435082B0435801930B
:104A1000019B02B070470000074A2823584313182F
:104A20000021597413581A6A586A1AB1800701D5BF
:104A3000D8691047704700BFB00F0020074A2823ED
:104A4000584313180021597313581A6A596A22B12E
:104A5000C90702D50121D86910477047B00F00205F
:104A6000084A2823584313180021D973597313583F
:104A70001A6B596B22B1490702D50421996310477B
:104A8000704700BFB00F0020124B53F82020124B8C
:104A900010B54FF4A671C2F8083304461046FFF76C
:104AA000B2FF4FF488711046FFF7ADFFD2F8003225
:104AB00023F02003C2F80032084B282101FB043404
:104AC00001232374002384F824301023C2F8043314
:104AD00010BD00BF7092000010000800B00F002051
:104AE0002DE9F347544F57F82060D6F810310446AB
:104AF000D3B14FF488713046FFF785FF28254F4822
:104B000005FB04F142188146137C002B46D000239C
:104B1000137493734358DA6B196C2AB1C90503D522
:104B20004FF480715964904757F82450D5F84C31B0
:104B3000FBB1D5F81031E3B94FF4A6712846FFF761
:104B400062FF3E4828236343C11804338A7C82F005
:104B5000010213440344086AC5F83435421C4FF07F
:104B60000103C5F8383504D08A69032A5BD901F0FE
:104B7000E3FCD5F8203173B14FF490712846FFF76C
:104B800042FF002C52D12E4B01221A702D4B4FF4B4
:104B90008012C3F8002102B0BDE8F087957C85F053
:104BA00001039374D6F83C35002BBDD001EB05080A
:104BB0001D44033501F1180608F103080D440644AD
:104BC00080440544924614E001A9DAF8140000F08C
:104BD000B1FE80B118F8013F037001A9DAF81400A2
:104BE00000F0D2FE56E8002F511E46E80013002BBD
:104BF000F8D1A845E8D1282303FB049999F811308E
:104C0000002B91D1012389F811303CB90E4A137061
:104C10000C4B4FF48012C3F8002185E7012C83D19F
:104C20000A4B1C70F4E781F82430A2E7012CB2D1C2
:104C3000074B1C70AAE700BF70920000B00F002065
:104C40000210002000E100E0001000200110002010
:104C5000031000200120FFF743BF0020FFF740BFF3
:104C60002DE9F041174B184F53F82040DFF85C80D6
:104C7000C4F80883282545437E190435706900F07F
:104C800037FE2023B3614FF4A6712046FFF7BBFE29
:104C90004FF488712046FFF7B6FED4F8003243F097
:104CA0002003C4F8003200233D440122B374C4F849
:104CB00034553374C4F8382586F82430C4F8048396
:104CC000BDE8F08170920000B00F002010000800D5
:104CD00008B5174B1A7832B100201870154BDB7BE2
:104CE000F3B1FFF7BDFE144B1A781AB1002018700B
:104CF000FFF792FE114B1A7842B100221A700D4B49
:104D000093F8373001207BB1FFF7AAFE0C4B1A78DD
:104D10006AB100221A700120BDE80840FFF77CBE8E
:104D20001846FFF78BFEDEE7FFF788FEEEE708BDCB
:104D300002100020B00F00200010002003100020FF
:104D40000110002041682DE9F8434D1C044610D0A5
:104D50001F2987BF01F01F03474A0B464FF0A042AF
:104D60000120984003F5E073C2F80805032042F8DB
:104D70002300A268501C0CD01F2A8BBF02F01F0317
:104D800013463D484FF0A04003F5E073002540F87E
:104D900023502368394E56F82300C0F80C15C0F88C
:104DA0001425227D012A15D1E268511C0CD01F2A3E
:104DB0008BBF02F01F0111462F4D4FF0A04501F5AA
:104DC000E071002745F821704FF0FF31C0F8081559
:104DD000C0F810252A4D2169282707FB03531A6ABA
:104DE00091423CD0187F01F06BFE236807FB035310
:104DF0001B6A013302D0206901F048FB2069431C83
:104E000027D0204901F0CEFA082806D1206901F008
:104E10003DFB1C49206901F0C5FA2368206956F85A
:104E200023704FF0280808FB035207F5887792F8A3
:104E30001C9001F073FB39460246484601F00AFE19
:104E4000236808FB0353187F01F024FE206901F05A
:104E500053FB2368282202FB035523692B62236836
:104E6000217D56F82320637D0B43C2F86C35A3697E
:104E7000C2F82435BDE8F8830003005070920000AA
:104E8000B00F00206C92000070B50468164E282206
:104E90006243B118B2589042054602D190F82C30C6
:104EA00083B12846FFF74EFF282363432046F55081
:104EB000002385F82C3095F82D304BB1BDE87040BB
:104EC000FFF7E2BD90F82D200B7C4AB95BB120467C
:104ED000FFF7C6FE054B53F8243001221A6070BD5F
:104EE0000BB92046EAE770BDB00F002070920000B9
:104EF0002DE9F84F524B534D90461A7804460F4611
:104F0000002A54D000221A7001F042FA08B901F0C8
:104F100007FA4D4E4D49DFF86891DFF868B114206B
:104F2000FFF714F9E02386F814334FF4801321229D
:104F3000C6F88031464933604846012300F0C5FC7D
:104F4000C5F814904FF00009C5F80090414801F0F1
:104F500055FD414B41494FF0FF3AC5F820A00220D2
:104F6000C3F808A3FFF7F2F8042386F8029321227E
:104F7000C6F880313A4933605846012300F0A5FC59
:104F8000C5F83CB0C5F82890364801F037FD364BDF
:104F9000C5F848A03549C3F808A32820FFF7D6F87C
:104FA0004FF4807386F82893C6F8843173604146C5
:104FB0003846FFF7C3FC28234343EA18206096686D
:104FC0000136012E96601AD0002363752375236283
:104FD000274B284AA2619C424FF0FF326760C4F819
:104FE0000880E26022614FF0010301D1224A136080
:104FF00084F82C302046BDE8F84FFFF745BF1F4A24
:1050000052F820200821C2F800150C334FF0FF3170
:10501000C2F80C151D44C2F814154FF08051C2F8A7
:1050200024151046C2F844554FF49071C2F84865F3
:10503000FFF7E9FC9660D2F81C31002BFBD0C3E7E8
:10504000CF020020B00F002000E100E0D14C0000B2
:10505000480F0020CC0F0020002000405B4C0000D7
:105060007C0F0020F40F002000800240554C00000F
:1050700004100020005027007010002070920000E3
:105080006C0F0020A00F0020B1F5166F35DBB1F5D5
:10509000965F35DBB1F5165F35DBB1F5615F34DB6B
:1050A000B1F5964F33DBB1F5E14F32DBB1F5164F79
:1050B00031DBB1F5614F30DBB1F5963F30DBB1F557
:1050C000E13F30DBB1F5613F2FDB1E4B99422FDD15
:1050D000B1F5E12F2FDBB1F5612F2FDB1A4B994290
:1050E000D4BF4FF070614FF08051836999421EBF69
:1050F0000123816180F82C3070474FF49E21F4E742
:105100004FF41D21F1E71149EFE71149EDE711498E
:10511000EBE71149E9E71149E7E74FF41D01E4E73F
:105120004FF46B01E1E70E49DFE74FF0EB71DCE78D
:105130004FF06C71D9E74FF08061D6E74FF0E8612E
:10514000D3E700BF8FD003003F420F0000B0130031
:105150000050270000F03A0000A04E0000C075008B
:1051600000903A0138B504680D46FFF78DFE114BEB
:1051700053F82420D2F81C31002BFBD010464FF4FA
:105180008E71FFF740FC0C4928236343C8180C3389
:105190000B440124C2F844350573C2F848454FF466
:1051A00090711046FFF72FFC4FF48073C2F8043360
:1051B000946038BD70920000B00F00200E4B1A6949
:1051C00042F010021A61F1EE102A22F09F02E1EE85
:1051D000102AF1EE102A094A4021C2F884114FF03A
:1051E00080420121D16740BF20BF5A68044B134061
:1051F00003B920BF704700BF00ED00E000E100E010
:105200003FF0439E0748027808B512B1064B0122D1
:105210001A60FFF7D3FF037813B1044B01221A6021
:1052200008BD00BF771000200490004000900040AF
:105230001F2886BF00F01F00044A4FF0A042012340
:1052400003FA00F0C2F80C05704700BF00030050DD
:105250002DE9F041056804462846FFF707FB844224
:1052600001D1237EF3B1002323760F4B0F4F5A5DFC
:105270009846EE0012B1B81901F0A8FDE36904F1F7
:1052800008016BB10A4A2346B81901F0B5FC0123A5
:1052900008F8053021462846BDE8F041FFF7DEBAA0
:1052A0001A46F1E7BDE8F081741000207892000002
:1052B0001D53000030B5016BC36A056C846A5A1A2D
:1052C000C36BFF2AA3EB050385B028BFFF22FF2B8A
:1052D00028BFFF230C44816B03930068064B0192A7
:1052E000294402910022694603EBC000009401F0BA
:1052F000B1FD05B030BD00BF789200001F2886BF09
:1053000000F01F00044A4FF0A042012303FA00F00E
:10531000C2F80805704700BF0003005010B50C46E6
:10532000017881B98368226B00691A44236C226377
:105330000344E06A2364824201D383420ED22046B2
:10534000FFF7B8FFE8B1236A990712D5E36983B183
:105350000022E26101222276022208E0236A5B0732
:1053600007D5E3692BB101222276E1610422626252
:10537000984794F90400421C03D0BDE81040FFF7A1
:10538000BDBF10BD2DE9F0410F46164604461A4632
:105390003146384698469DF91850FFF771FAFF23B9
:1053A000E37263734FF08043072223610023206080
:1053B00023756375E36123626362257184F8088055
:1053C0006772A67222732046FFF742FF6B1C0ED055
:1053D0002846FFF793FF1F2D86BF05F01F050E4BD4
:1053E0004FF0A04305F5E071032243F821200B4B59
:1053F0001A787AB100220A491A700320FEF7A6FE35
:1054000008490420FEF7A2FE07492320BDE8F04129
:10541000FEF79CBEBDE8F08100030050D0020020E2
:10542000C96B0000D96B0000E96B00003AB1012A9A
:1054300005D0022A03D0032A14BF00220322037DD1
:1054400093421EBF012302750376FFF701BF0000E0
:10545000174B99421CDD174B99421CDD164B9942A4
:105460001CDD164B99421CDD154B99421CDD03F5E2
:10547000741303F510639942D4BF4FF080414FF08D
:105480000041036999421EBF012301610376704701
:105490004FF00071F5E74FF08061F2E74FF00061E7
:1054A000EFE74FF08051ECE74FF00051E9E700BF24
:1054B0008FD003001FA107003F420F007F841E0012
:1054C000FF083D0030B5044687B005688DF806102A
:1054D000FFF7BEFE94F90400421C01D0FFF7A8FEBE
:1054E0000DF106030B4802930DF10703049300220C
:1054F000012302A900EBC5000393059301F0AAFC68
:1055000094F90400431C01D0FFF7F8FE9DF8070052
:1055100007B030BD789200002DE9F04F87B01746F4
:105520009B46427B9DF844300568DDF840809A42F6
:1055300018BF012204461CBF027643738A46FFF758
:1055400087FE94F90400421C01D0FFF771FE214B45
:10555000002003EBC503009305460646002F0DDC33
:10556000B8F1000F0ADC94F90400431C2ED1AE42BE
:105570003046B8BF284607B0BDE8F08F0028F2D10A
:10558000FF2F3B46A8BFFF23002BC8BF0AEB060036
:10559000B8F1FF0FC146A8BF4FF0FF09B9F1000FE6
:1055A000CCBF0BEB050200220290049202A900225C
:1055B000009803930193CDF8149001F04BFC019BEC
:1055C000A8EB0908FF1A1E444D44C7E7FFF796FEF3
:1055D000CDE700BF7892000000487047909200002D
:1055E00073B5214E214A3178214C51B1002313600B
:1055F00013680093009B4FF48033C4F8083302B063
:1056000070BD1C4B01251D604FF48033C4F8083376
:10561000D4F8043523F00303C4F80435D4F8103566
:1056200023F00F0343F00403C4F81035D4F8083511
:1056300043F00303C4F80835C4F84015116013683B
:1056400001930D49019B0920FEF780FD0B4B402281
:1056500083F809234FF40072C3F880211A60084BC5
:1056600025601D603570CAE777100020409100402A
:1056700000900040049000400D20000000E100E098
:1056800044900040024B01221A60D3F80005704795
:105690004490004013B50446FCF782FD0A4AC2F864
:1056A0004045D2F8043313F4803308D107490B6026
:1056B0000B680193019B4FF48033C2F80433FCF76D
:1056C00079FD02B010BD00BF009000404091004045
:1056D000024B4FF40072C3F80021704700E100E074
:1056E000024B4FF48032C3F808237047009000400B
:1056F000044B00221A6082B01B680193019B02B028
:10570000704700BF40910040094B01221A604FF4DE
:105710008032C3F80423074B4FF40072C3F8802093
:10572000BFF34F8FBFF36F8F034B00221A70704788
:105730000490004000E100E077100020014B43603E
:10574000002070479892000008467047002070477C
:10575000024B1868003018BF0120704778100020F5
:1057600008B5024800F0AEF8002008BD781000200F
:1057700008B510461A4602F024FF002008BD0000BC
:105780002DE9F041804686B014480E4615461F4666
:1057900000F095F80446F0B9A54216D10F4800F084
:1057A00091F8D8F8084064B118220021684602F048
:1057B00013FF02238DF80030029604950597684682
:1057C000A047002006B0BDE8F08106EB043001F0F0
:1057D000CFFB0134E0E71120F4E700BF7810002090
:1057E0002DE9F041044686B013480F4690461E4608
:1057F00000F065F80546E8B9B2084146384601F0C0
:10580000CFFB0D4800F05EF8A4688CB11822294641
:10581000684602F0E1FE01238DF800300C9B0297F0
:10582000684604960593A047284606B0BDE8F08177
:105830002046FAE71120F8E77810002072B6054AF2
:105840001378191C18BF0121013301701370002057
:10585000704700BF7C100020044B20B11A78013A39
:105860001A7000207047187062B6FAE77C100020AA
:1058700000B550E8002F42EA010340E8003E9EF0E8
:10588000000FF6D110465DF804FB00B550E8003F6C
:1058900003EA010240E8002E9EF0000FF6D1104608
:1058A0005DF804FB00B550E8003FA3EB010240E8BF
:1058B000002E9EF0000FF6D110465DF804FB01218A
:1058C000FFF7D6BF0021FFF7E0BF10B561B1B2FB13
:1058D000F3F403FB1424A4B244B980E812008460FA
:1058E0008281C381204610BD0E2010BD092010BD4D
:1058F00082B050E8022FC188B2EB324F4FF0000364
:1059000017BF92B241EA014142EA014104E0426814
:10591000B2EB324F08BF012340E80212002AE8D15F
:105920008DF807309DF80730002B0CBF11200020A8
:1059300002B0704737B550E8013F9DB2C489254495
:105940008489A54228BF2D1B0489A54202BFBFF34D
:105950002F8F002207E0C5EA030540E80154002C20
:10596000E9D14FF001028DF803200193019B9DF8CE
:1059700003200B6002F0FF0322B10B88006818447B
:1059800003B030BD1846FBE70A884B889A4209D11C
:1059900050E8012FC2EA024240E80123002BF7D170
:1059A000012070470020704737B550E8023F1FFACA
:1059B000A3F5C488A54202BFBFF32F8F00220DE0DC
:1059C000C48925448489A54228BF2D1BC3EA054507
:1059D00040E80254002CE8D14FF001028DF803207A
:1059E0000193019B9DF803200B6002F0FF0322B19D
:1059F0004B880068184403B030BD1846FBE70A889E
:105A00004B889A4209D150E8022FC2EA224240E86C
:105A10000223002BF7D101207047002070470000BF
:105A200070B5064E0546002456F824300BB12846C2
:105A300098470134042CF7D170BD00BF8C100020B2
:105A40000B4A0C4B5188142000FB0131CB6833B951
:105A50000420496810700122074800F0F7BB0523B5
:105A60000649137002238B80012200230968F3E7A3
:105A7000A4100020BC1000208C030020F81000208F
:105A800007B5002305490093054A0968054808231E
:105A900000F0A6FB03B05DF804FB00BFF810002087
:105AA000D09200008C03002007B50023009301462C
:105AB0000823034A034800F093FB03B05DF804FB9E
:105AC000C89200008C03002013B500230C460093FD
:105AD00001460423074A084800F082FB38B9074B07
